{
  "address": "0x231C72a7d7e69ab812A6260300e57a7364D1EC22",
  "abi": [
    {
      "inputs": [
        {
          "internalType": "address",
          "name": "owner",
          "type": "address"
        },
        {
          "internalType": "uint8",
          "name": "curveType",
          "type": "uint8"
        },
        {
          "internalType": "bool",
          "name": "managed",
          "type": "bool"
        },
        {
          "internalType": "uint16",
          "name": "durationWeeks",
          "type": "uint16"
        },
        {
          "internalType": "uint64",
          "name": "startDate",
          "type": "uint64"
        },
        {
          "internalType": "uint128",
          "name": "amount",
          "type": "uint128"
        },
        {
          "internalType": "uint128",
          "name": "initialUnlock",
          "type": "uint128"
        }
      ],
      "name": "vestingHash",
      "outputs": [
        {
          "internalType": "bytes32",
          "name": "vestingId",
          "type": "bytes32"
        }
      ],
      "stateMutability": "pure",
      "type": "function"
    }
  ],
  "transactionHash": "0x748c49d37e096822a535d2bb04011464c4e03cbefa937895cbf8afd4b42f4176",
  "args": [],
  "numDeployments": 1,
  "solcInputHash": "f9bde5d1815c4a843aacfeb4e93e8f11",
  "bytecode": "0x610682610053600b82828239805160001a607314610046577f4e487b7100000000000000000000000000000000000000000000000000000000600052600060045260246000fd5b30600052607381538281f3fe73000000000000000000000000000000000000000030146080604052600436106100355760003560e01c8063097598601461003a575b600080fd5b610054600480360381019061004f91906102e9565b61006a565b60405161006191906103a4565b60405180910390f35b6000807fb03948446334eb9b2196d5eb166f69b9d49403eb4a12f36de8d3f9f3cb8e15c360405160200161009e9190610477565b60405160208183030381529060405280519060200120905060007fd8707679f1f9d6a59fc57e06c200e5a936b5e3f67300ee739313b8a4914f3b498a8a8a8a8a8a8a6040516020016100f7989796959493929190610512565b604051602081830303815290604052805190602001209050601960f81b600160f81b838360405160200161012e94939291906105fe565b6040516020818303038152906040528051906020012092505050979650505050505050565b600080fd5b600073ffffffffffffffffffffffffffffffffffffffff82169050919050565b600061018382610158565b9050919050565b61019381610178565b811461019e57600080fd5b50565b6000813590506101b08161018a565b92915050565b600060ff82169050919050565b6101cc816101b6565b81146101d757600080fd5b50565b6000813590506101e9816101c3565b92915050565b60008115159050919050565b610204816101ef565b811461020f57600080fd5b50565b600081359050610221816101fb565b92915050565b600061ffff82169050919050565b61023e81610227565b811461024957600080fd5b50565b60008135905061025b81610235565b92915050565b600067ffffffffffffffff82169050919050565b61027e81610261565b811461028957600080fd5b50565b60008135905061029b81610275565b92915050565b60006fffffffffffffffffffffffffffffffff82169050919050565b6102c6816102a1565b81146102d157600080fd5b50565b6000813590506102e3816102bd565b92915050565b600080600080600080600060e0888a03121561030857610307610153565b5b60006103168a828b016101a1565b97505060206103278a828b016101da565b96505060406103388a828b01610212565b95505060606103498a828b0161024c565b945050608061035a8a828b0161028c565b93505060a061036b8a828b016102d4565b92505060c061037c8a828b016102d4565b91505092959891949750929550565b6000819050919050565b61039e8161038b565b82525050565b60006020820190506103b96000830184610395565b92915050565b6103c88161038b565b82525050565b600082825260208201905092915050565b7f56657374696e674c696272617279000000000000000000000000000000000000600082015250565b6000610415600e836103ce565b9150610420826103df565b602082019050919050565b7f312e300000000000000000000000000000000000000000000000000000000000600082015250565b60006104616003836103ce565b915061046c8261042b565b602082019050919050565b600060608201905061048c60008301846103bf565b818103602083015261049d81610408565b905081810360408301526104b081610454565b905092915050565b6104c181610178565b82525050565b6104d0816101b6565b82525050565b6104df816101ef565b82525050565b6104ee81610227565b82525050565b6104fd81610261565b82525050565b61050c816102a1565b82525050565b600061010082019050610528600083018b6103bf565b610535602083018a6104b8565b61054260408301896104c7565b61054f60608301886104d6565b61055c60808301876104e5565b61056960a08301866104f4565b61057660c0830185610503565b61058360e0830184610503565b9998505050505050505050565b60007fff0000000000000000000000000000000000000000000000000000000000000082169050919050565b6000819050919050565b6105d76105d282610590565b6105bc565b82525050565b6000819050919050565b6105f86105f38261038b565b6105dd565b82525050565b600061060a82876105c6565b60018201915061061a82866105c6565b60018201915061062a82856105e7565b60208201915061063a82846105e7565b6020820191508190509594505050505056fea26469706673582212206264b61396aacad8b43d52b13fa7e55702ec7e0346c6ed63e383199ed248dda164736f6c63430008160033",
  "devdoc": {
    "kind": "dev",
    "methods": {
      "vestingHash(address,uint8,bool,uint16,uint64,uint128,uint128)": {
        "params": {
          "amount": "Amount of tokens that are vested in atoms",
          "curveType": "Type of the curve that is used for the vesting",
          "durationWeeks": "The duration of the vesting in weeks",
          "initialUnlock": "Amount of tokens that are unlocked immediately in atoms",
          "managed": "Indicator if the vesting is managed by the pool manager",
          "owner": "The owner for which the vesting was created",
          "startDate": "The date when the vesting started (can be in the future)"
        },
        "returns": {
          "vestingId": "Id of a vesting based on its parameters"
        }
      }
    },
    "version": 1
  },
  "userdoc": {
    "kind": "user",
    "methods": {
      "vestingHash(address,uint8,bool,uint16,uint64,uint128,uint128)": {
        "notice": "Calculate the id for a vesting based on its parameters."
      }
    },
    "version": 1
  },
  "storageLayout": {
    "storage": [],
    "types": null
  }
}